:020000022000DC
:10600000000004203DAF02007DAF02007FAF020020
:1060100081AF020083AF020085AF020000000000E4
:10602000000000000000000000000000ADC20200FF
:1060300089AF020000000000CDC202008DAF020057
:10604000C10E03008FAF02008FAF02008FAF0200BE
:106050008FAF02008FAF02008FAF02008FAF020040
:106060008FAF02008FAF02008FAF02008FAF020030
:106070008FAF02008FAF02008FAF02008FAF020020
:106080008FAF020089C002008FAF02008FAF020005
:106090008FAF02008FAF02008FAF02008FAF020000
:1060A0008FAF02008FAF02008FAF02008FAF0200F0
:1060B0008FAF02008FAF0200000000000000000060
:1060C0008FAF02008FAF02008FAF020059C70200EE
:1060D0008FAF02008FAF02008FAF020045D50200E4
:1060E0008FAF02008FAF02008FAF020000000000F0
:1060F000000000008FAF020000000000D1C70200C6
:10610000000000000000000000000000000000008F
:10611000000000000000000000000000000000007F
:10612000000000000000000000000000000000006F
:10613000000000000000000000000000000000005F
:10614000000000000000000000000000000000004F
:10615000000000000000000000000000000000003F
:10616000000000000000000000000000000000002F
:10617000000000000000000000000000000000001F
:10618000000000000000000000000000000000000F
:1061900000000000000000000000000000000000FF
:1061A00000000000000000000000000000000000EF
:1061B00000000000000000000000000000000000DF
:1061C00000000000000000000000000000000000CF
:1061D00000000000000000000000000000000000BF
:1061E00000000000000000000000000000000000AF
:1061F000000000000000000000000000000000009F
:10620000F1EE103A43F08073E1EE103A704700BFB0
:1062100010B5054C237833B9044B13B10448AFF3E0
:1062200000800123237010BD846200200000000064
:106230007062030008B5034B1BB103490348AFF379
:10624000008008BD0000000088620020706203002A
:10625000154B002B08BF134B9D46A3F5803A002138
:106260008B460F461348144A121A0CF0A5F90F4B2F
:10627000002B00D098470E4B002B00D098470020F1
:10628000002104000D000D48002802D00C48AFF397
:1062900000800CF013F92000290007F0CBFE0CF071
:1062A000F9F800BF00000800000004200000000012
:1062B0000000000084620020887C002000000000B4
:1062C00000000000704700BF704700BF704700BF6C
:1062D000704700BF10B504464068064B236030B1DC
:1062E0000368013B036013B9D4E9031398472046C0
:1062F00010BD00BF4058030010B504464068064B6F
:10630000236030B10368013B036013B9D4E9031380
:106310009847204610BD00BF105803004368184737
:10632000704700BF10B50C4608B107F0D3FE2CB182
:10633000236820465B68BDE81040184710BD00BFC9
:1063400010B50C4608B107F0C5FE2CB123682046F5
:106350005B68BDE81040184710BD00BF10B504468B
:1063600007F0B8FE204610BD10B5044607F0B2FE97
:10637000204610BD10B5044607F0ACFE204610BD07
:1063800010B5044607F0A6FE204610BD10B5044621
:106390004068074B236030B10368013B036013B9C9
:1063A000D4E903139847204607F094FE204610BD19
:1063B0001058030010B504464068074B236030B105
:1063C0000368013B036013B9D4E9031398472046DF
:1063D00007F080FE204610BD4058030038B5D0F8C5
:1063E00088300546BBB153F8044C04EB440403EB7E
:1063F000C404A3420BD0183C04F10C0007F01EFAB1
:10640000204607F01BFAD5F88830A342F3D1A4F157
:10641000080007F06FFE2C6C0023C5F8843034B1FF
:106420002046646803685B689847002CF8D105F142
:106430009C0007F003FA05F1900007F0FFF9286EC1
:106440000D4CEC6518B10368013B03607BB1E86C4F
:10645000AC6430B10368013B036013B9D5E915138F
:10646000984705F1280007F0E9F9284638BDD5E935
:106470001A139847EBE700BF1058030038B50446DD
:106480000E4B40F8303B07F0D9F9206A0C4DE5611E
:1064900018B10368013B03605BB1E068A56030B1EF
:1064A0000368013B036013B9D4E9051398472046FC
:1064B00038BDD4E90A139847EFE700BF205803001E
:1064C0001058030070B590F83C308AB0154623B1DF
:1064D0008B4202D000200AB070BD00F1300421468A
:1064E000284607F085FB10B101200AB070BD1A499B
:1064F00007A807F0B9F807A9204607F0F7FB0646FA
:1065000007A807F09BF9002EE4D0214601A807F068
:10651000C5F8114904A807F0A7F8104907A807F023
:10652000A3F807AA04A901A807F068FC07A807F0C8
:1065300085F904A807F082F901A9284607F0C2FBF3
:10654000044601A81CB907F079F92046C3E707F013
:1065500075F90120BFE700BF54500300AC5603009B
:1065600038B504460F4B40F8303B07F067F9206A16
:106570000D4DE56118B10368013B036073B1E0683C
:10658000A56030B10368013B036013B9D4E905137A
:106590009847204607F09EFD204638BDD4E90A13EF
:1065A0009847ECE7205803001058030070B50668C0
:1065B0008CB0194604466846B668154607F06EF872
:1065C000304B9E424FD194F83C3043B19D4206D0AF
:1065D000684607F033F9002528460CB070BD04F179
:1065E00030052946684607F003FB50B1684607F0BE
:1065F00025F9206903689B689847012528460CB057
:1066000070BD214909A807F02FF809A9284607F00D
:106610006DFB064609A807F011F9002ED8D02946CF
:1066200003A807F03BF8184906A807F01DF817491A
:1066300009A807F019F809AA06A903A807F0DEFBC4
:1066400009A807F0FBF806A807F0F8F803A96846C0
:1066500007F038FB054603A885B907F0EFF8684650
:1066600007F0ECF8CAE729466A462046B0470546D7
:10667000684607F0E3F8002DBBD1BFE707F0DEF86E
:10668000B4E700BFC564020054500300AC560300D9
:1066900030B50446406A8DB080B1236868469D6875
:1066A00006F0FCFF294B9D4244D194F83C303BB1AD
:1066B000032B05D0684607F0C1F800200DB030BDAF
:1066C00030342146684607F093FA28B1684607F04F
:1066D000B5F801200DB030BD1D4909A806F0C4FF72
:1066E00009A9204607F002FB054609A807F0A6F80D
:1066F000002DDFD0214603A806F0D0FF144906A8DC
:1067000006F0B2FF134909A806F0AEFF06A909AAD0
:1067100003A807F073FB09A807F090F806A807F094
:106720008DF803A9684607F0CDFA50B903A807F021
:1067300085F8BFE720466A460321A8470028C5D14F
:10674000B8E703A807F07AF8C0E700BFC564020005
:1067500054500300AC56030070B5036890B0044673
:10676000114601A8DD6806F099FF394B9D422AD1F8
:10677000636A83B1236804A801A99D6806F08EFFAF
:10678000344B9D4258D194F83C304BB1032B07D089
:1067900004A807F053F801A807F050F810B070BD36
:1067A00004F13005294604A807F022FAB0B104A884
:1067B00007F044F801A807F041F8606A03689B6895
:1067C000984710B070BD01A92046A847054601A80A
:1067D00007F034F8002DF0D110B070BD1E490DA89F
:1067E00006F042FF0DA9284607F080FA06460DA8DC
:1067F00007F024F8002ECBD0294607A806F04EFF5C
:1068000015490AA806F030FF14490DA806F02CFF20
:106810000AA90DAA07A807F0F1FA0DA807F00EF8CB
:106820000AA807F00BF807A904A807F04BFA50B91B
:1068300007A807F003F8ABE704AA03212046A847FE
:106840000028B4D1A4E707A806F0F8FFAFE700BF1F
:1068500091660200C564020054500300AC56030068
:1068600070B589B20446194E002503F035F904F1DC
:10687000100003F09FF8314684F8245004F12800FA
:1068800006F0F2FE124BA364E3653146C4E90F55EE
:10689000C4E91355C4E91555C4E91855C4E91A5596
:1068A000C4E91C55C4E9215584F834506564C4F822
:1068B0008C5004F1900006F0D7FE314604F19C00A4
:1068C00006F0D2FE84F8A850204670BDAC560300F6
:1068D000105803002DE9F04FD3E90154D3E9039395
:1068E00085B00746019400930E9C904615B12B6825
:1068F00001332B60D4E90163D4E903BA16B13268DD
:10690000013232604020CDE9023107F0C3FB04467A
:10691000019B03610022C560009B20486260204A01
:10692000A361C4F81490DDE902312060A26015B1C2
:10693000286801302860C4E90726C4E9093BC4F887
:106940002CA016B133680133336004F1300006F037
:10695000A5FE7B6C84F83C80E3B15C607C641EB176
:106960003368013B33608BB16DB12B68013B2B6009
:106970004BB9DDED007A17EE903A4946284605B04E
:10698000BDE8F04F184705B0BDE8F08F59463046D6
:10699000D047E9E7C7E91044E1E700BF205803000A
:1069A00010580300F0B5D2E9014CD2E903768FB05C
:1069B000002C41D02368244D0594013323602368C3
:1069C000CDF818C0CDE90776013323600495D0E9EE
:1069D00018320B92C26E0392826E0C92039A0D9241
:1069E000CDE9095313B11A6801321A6009AB00935B
:1069F000002204ABFFF76EFF0A98099518B10368EF
:106A0000013B0360A3B10598049518B10368013BED
:106A100003604BB134B12368013B236013B939469D
:106A20002046B0470FB0F0BDDDE907139847F1E706
:106A3000DDE90C139847E6E7034D0495CDE9054CD5
:106A4000CDE90776C3E700BF105803002DE9F843EE
:106A5000D0F88830541C06460F46C0F88440002BFE
:106A60005BD053F8044C04EB440403EBC404A3428E
:106A70000BD0183C04F10C0006F0E0FE204606F0B6
:106A8000DDFED6F88830A342F3D1A4F1080007F068
:106A900031FBD6F88440651E214B9C429DBF04EB20
:106AA0004400C00008304FF0FF3007F003FB18230C
:106AB000002DC0E9003400F1080910DBDFF8688020
:106AC0004C464146204606F0CFFD013D04F10C0046
:106AD000414606F0C9FD6B1C04F11804F1D1114BBD
:106AE000C6F888901968484606F00CFFD6F884303E
:106AF000012B10DD043F18250124D6F8880057F833
:106B0000041F284406F0FEFED6F884300134A34268
:106B100005F11805F1DCBDE8F8831546BCE700BFB8
:106B20005555550504600020AC560300B1F5FD7FB6
:106B300010B5044680F28681B1F5967FC0F2D5800B
:106B4000A1F59671CD2900F27D81DFE811F0770182
:106B500073016F016B01670163017B015F017B01C1
:106B60007B017B017B017B017B017B017B017B0145
:106B70007B017B017B017B017B017B017B017B0135
:106B80007B017B017B017B017B017B017B017B0125
:106B90007B017B017B017B017B017B017B017B0115
:106BA0007B017B017B017B017B017B017B017B0105
:106BB0007B017B017B017B017B017B017B017B01F5
:106BC0007B017B017B017B017B017B017B017B01E5
:106BD0007B017B017B017B017B017B017B017B01D5
:106BE0007B017B017B017B017B017B017B017B01C5
:106BF0007B017B017B017B017B017B017B017B01B5
:106C00007B017B017B017B017B017B017B017B01A4
:106C10007B017B017B015B01570153014F014B015C
:106C2000470143013F013B01370133012F012B0194
:106C3000270123011F011B0117017B017B017B0140
:106C40007B017B017B017B017B017B017B017B0164
:106C50007B017B017B017B017B017B017B017B0154
:106C60007B017B017B017B017B017B017B017B0144
:106C70007B017B017B017B017B017B017B017B0134
:106C80007B017B017B017B017B017B017B017B0124
:106C90007B017B017B017B017B017B017B017B0114
:106CA0007B017B017B017B017B017B017B017B0104
:106CB0007B017B017B017B017B017B017B017B01F4
:106CC0007B017B017B017B017B017B017B017B01E4
:106CD0007B017B017B017B017B017B017B0113013C
:106CE0000F010B0107010301FF00CE2900F3AA8069
:106CF000C72908DDC939052900F2AD80DFE801F0B8
:106D00001E1A16120E22642900F0A180652940F097
:106D10009980534906F0DCFC204610BD514906F02D
:106D2000D7FCF9E7504906F0D3FCF5E74F4906F0E8
:106D3000CFFCF1E74E4906F0CBFCEDE74D4906F0FC
:106D4000C7FCE9E74C4906F0C3FCE5E74B4906F010
:106D5000BFFCE1E74A4906F0BBFCDDE7494906F024
:106D6000B7FCD9E7484906F0B3FCD5E7474906F038
:106D7000AFFCD1E7464906F0ABFCCDE7454906F04C
:106D8000A7FCC9E7444906F0A3FCC5E7434906F060
:106D90009FFCC1E7424906F09BFCBDE7414906F074
:106DA00097FCB9E7404906F093FCB5E73F4906F088
:106DB0008FFCB1E73E4906F08BFCADE73D4906F09C
:106DC00087FCA9E73C4906F083FCA5E73B4906F0B0
:106DD0007FFCA1E73A4906F07BFC9DE7394906F0C4
:106DE00077FC99E7384906F073FC95E7374906F0D8
:106DF0006FFC91E7364906F06BFC8DE7354906F0EC
:106E000067FC89E7344906F063FC85E7334906F0FF
:106E10005FFC81E7324906F05BFC7DE7314906F013
:106E200057FC79E7304906F053FC75E72F4906F027
:106E30004FFC71E72E4906F04BFC6DE72D4906F03B
:106E400047FC69E72C49204606F00EFC64E72B4915
:106E500006F03EFC60E72A4906F03AFC5CE700BF1A
:106E60006C500300C4500300B85003009850030056
:106E70008C50030084500300D4500300FC520300E4
:106E8000E8520300D4520300C8520300B852030072
:106E9000A05203008C5203006C52030054520300B2
:106EA0003C520300205203000C520300FC5103002B
:106EB000F4510300E8510300D4510300B45103001E
:106EC000A451030090510300845103007851030042
:106ED000645103005451030048510300345103002E
:106EE00028510300185103000C510300885103007E
:106EF000F8500300E4500300AC5603006050030058
:106F000080500300F0B506468DB00C4609A899499B
:106F10001D46174606F0A8FB0A2296F8341006A86C
:106F200006F0F0FB06A909A806F006FE924906F055
:106F30002FFE0146204606F09DFC06A806F07EFCCA
:106F400009A806F07BFC0A22394609A806F00EFCC7
:106F500009A9204606F02AFD09A806F06FFC86491B
:106F6000204606F047FD394609A8FFF7DFFD09A9CD
:106F7000204606F01BFD09A806F060FC7F4920466C
:106F800006F038FD7E4B7F49002D08BF1D46684640
:106F900006F06AFB294603A806F066FB694606A8C8
:106FA00006F07CFB784906A806F024FD03A906A894
:106FB00006F0FCFC714906A806F01CFD06F19005E0
:106FC00006A909A806F06AFB294609A806F0B4FD3F
:106FD0000146284606F04EFC09A806F02FFC06A83C
:106FE00006F02CFC03A806F029FC684606F026FCF7
:106FF000D6F88C309A1C67D001333DD196F83430E6
:10700000002B68D1614903A806F02EFB604906A851
:1070100006F02AFB03A909A806F040FB5A4909A873
:1070200006F0E8FC06A909A806F0C0FC534909A827
:1070300006F0E0FC09A9284606F0B8FC09A806F00D
:10704000FDFB06A806F0FAFB03A806F0F7FB2946AD
:10705000204606F0ABFC4949204606F0CBFC4D49E2
:1070600009A806F001FB09A9284606F029FC09A891
:1070700006F0E4FB0DB0F0BD474906A806F0F4FAAF
:10708000D6F88C100A2203A806F0A4FB06A909A8CA
:1070900006F004FB3C4909A806F0ACFC03A909A8CA
:1070A00006F084FC354909A806F0A4FC09A9284685
:1070B00006F07CFC09A806F0C1FB03A806F0BEFBA5
:1070C00006A806F0BBFB9DE7334906A806F0CCFAFC
:1070D00012990A22D7E7012386F8A8302F4903A87E
:1070E00006F0C2FA2E4906A806F0BEFA03A909A8BE
:1070F00006F0D4FA244909A806F07CFC06A909A8E0
:1071000006F054FC1D4909A806F074FC09A928469C
:1071100006F04CFC09A806F091FB06A806F08EFBD1
:1071200003A806F08BFB1F4903A806F09DFA1E4931
:1071300006A806F099FA03A909A806F0AFFA1249C1
:1071400009A806F057FC06A909A806F02FFC0B4970
:1071500009A806F04FFC09A9284606F027FC09A853
:1071600006F06CFB06A806F069FB03A806F066FBB8
:1071700048E700BF18530300B45603005C500300F7
:10718000A458030020530300585003007453030015
:1071900080530300AC5603003053030040530300F8
:1071A00050530300585303006C5303002DE9F04F74
:1071B0004FF0000989B083460E4692464C46214660
:1071C000304606F0C1FD26284FD02146304606F055
:1071D000BBFD3B2849D022463D21304606F0CEFD7E
:1071E000224626218046304606F0C8FD2246054646
:1071F0003B21304606F0C2FD0746681C3AD0791C98
:1072000002D0BD42A8BF3D46B8F1FF3F39D0A845E6
:1072100037DC2F464546AC4221DADAF80800DBF8C5
:1072200074100368CDF810800DF11C0CCDF80CC063
:107230000DF1140E0DF1100CCDE900CE06AA02924C
:1072400009EB490201EBC201CDE9054507979C68AE
:1072500001F10C023346A04709F101097C1C0137FA
:10726000ADD1484609B0BDE8F08FB36801349C4207
:10727000B1D2A4E7B8F1FF3F05D17B1C0DD1B568B1
:10728000C9E72F46C7E7B84501DC3D46C1E77A1C90
:1072900018BF3D46F5D14546BDE73D46BBE700BFBB
:1072A0002DE9F04F436F87B007468846B3B153F8D6
:1072B000044C04EB440403EBC404A3420AD0183C7E
:1072C00004F10C0006F0BAFA204606F0B7FA7B6F1C
:1072D000A342F4D1A4F1080006F00CFF0023DFF86C
:1072E0005491CDF804900820CDE90233CDE9043360
:1072F00006F0D0FE044602984A4B236028B1056888
:10730000013D0560002D00F08580042006F0C2FEDE
:10731000002303600368029001330360DFF818A1C3
:10732000CDF814A001AA41463846CDE90344FFF741
:107330003DFF029BCDF804900546386723B11A68DB
:10734000013A1A60002A5FD0374B6C1C9C429DBFEB
:1073500004EB4400C00008304FF0FF3006F0AAFEF6
:107360001823002DC0E9003400F1080B0FDB2F4E6D
:107370005C463146204606F077F9013D04F10C00E9
:10738000314606F071F96B1C04F11804F1D10023A9
:10739000C7F874B00820CDE90193CDE90333059314
:1073A00006F078FE04460298214B236018B1056868
:1073B000013D056005B3042006F06CFE002202606A
:1073C000056802900346013501AA414638461D6012
:1073D000CDE90344CDF814A0FFF7E8FE0298CDF8FC
:1073E000049030B10368013B036013B9DDE9041375
:1073F000984707B0BDE8F08FDDE904139847CDE961
:107400000255CDE90455D6E71846DDE9041398473F
:107410003D6F99E7DDE904139847CDE90255CDE9C1
:10742000045572E75058030055555505AC560300F6
:107430006458030040580300256302002DE9F04121
:10744000826FD36AB3F5006F84B00D4607D0581C25
:107450001344D06283F8345004B0BDE8F081C66BA9
:1074600004468EB1336800F12807394601A8D3F8E5
:107470000C8006F013F901A93046C04760B901A895
:1074800006F0DCF9A26FD36A916A00200B44C2E9CE
:107490000A3003460120DBE701A806F0CFF9E66BCE
:1074A0003368394601A85F6906F0F8F8A36F01AAAE
:1074B00030462146B84701A806F0C0F9A26FD36A4A
:1074C000E2E700BFF0B5836FC56B032285B01A7089
:1074D000F5B12B6800F128063146044601A8DF68A3
:1074E00006F0DCF801A92846B847A0B101A806F0CB
:1074F000A5F9E56B2B68314601A85E6906F0CEF868
:107500002846A36F214601AAB04701A806F096F9C4
:10751000002005B0F0BD01A806F090F9002005B0EC
:10752000F0BD00BF2DE9F04F2DED028B99B000AFFB
:1075300005460C4607F10C00E2497B60164606F052
:1075400093F84FF003080D22214607F1540005F08F
:1075500025FE07F1540107F10C0006F0B1F907F11F
:10756000540006F06BF97B6913B9B8F10108EAD150
:107570000A22214607F1540005F010FE07F15400DD
:1075800006F05CF9D04907F1540006F06DF8314679
:1075900007F1540006F0D0FA014607F10C0006F09E
:1075A00027FB804607F1540006F048F9B8F1000FB8
:1075B00000F09380D5F88020C2B152F8043C03EB70
:1075C000430302EBC30842450CD0A8F1180808F1A8
:1075D0000C0006F033F9404606F030F9D5F880305B
:1075E0004345F2D1A8F1080006F084FD4FF4427043
:1075F00006F060FD18222023C0E9002300F10809ED
:10760000DFF8C0B200F5427AC8465946404606F057
:107610002BF808F10C00594608F1180806F024F878
:10762000C245F2D10023C5E91F39DFF898824146EF
:1076300007F1180006F018F8414607F1240006F09B
:1076400013F8414607F1300006F00EF8414607F105
:107650003C0006F009F80D22214607F1540005F020
:107660009DFD07F1540107F10C0006F029F907F11F
:10767000540006F0E3F80A22214607F1540005F011
:107680008DFD07F1540006F0D9F87B69132B2FD834
:1076900007F13C0006F0D2F807F1300006F0CEF812
:1076A00007F1240006F0CAF807F1180006F0C6F842
:1076B000BDE72846FFF706FF804607F13C0006F0CD
:1076C000BDF807F1300006F0B9F807F1240006F024
:1076D000B5F807F1180006F0B1F807F10C0006F054
:1076E000ADF840466437BD46BDEC028BBDE8F08F77
:1076F0001323002207F10C0107F1480006F050FBAC
:10770000724907F1540005F0E3FF07F1540107F156
:10771000480006F0B5FA814607F1540006F08EF8ED
:1077200007F1480006F08AF8B9F1000FB0D03D210A
:1077300007F10C0006F012FB411CA9D0821C7B69EA
:1077400007F10C0107F1540006F02AFB07F1540180
:1077500007F1180006F0B4F807F1540006F06EF8CF
:107760003D2107F1180006F0F9FA421C3B6A00F0CF
:107770007B83821C013B07F1180107F1540006F0DE
:107780000FFB07F1540107F13C0006F099F807F1EF
:10779000540006F053F8222107F1180006F0DEFA33
:1077A0000022034607F1180107F1540006F0F8FA29
:1077B00007F1540107F1180006F082F807F15400B0
:1077C00006F03CF8424907F1480005F081FF07F157
:1077D000480107F13C0006F00BFA002840F0418117
:1077E00007F1480006F02AF84FF00109394907F17E
:1077F000300006F087F80D22214607F1540005F00D
:10780000CDFC07F1540107F10C0006F059F807F11F
:10781000540006F013F80A22214607F1540005F03F
:10782000BDFC07F1540006F009F87B690C2B00F24F
:10783000C980B9F1000F51D1DFF88CA0DFF898B002
:10784000A14605E007F10C0107F1240006F0AEF8AF
:107850000D22494607F1540005F0A0FC07F1540140
:1078600007F10C0006F02CF807F1540005F0E6FFD4
:107870000A22494607F1540005F090FC07F1540034
:1078800005F0DCFF514607F1540005F0EDFE3146EE
:1078900007F1540006F050F9014607F10C0006F01C
:1078A00011FA044607F1540005F0C8FF002C40F01F
:1078B0002B81FB6A002BC5D0594607F1240006F046
:1078C00099F8BFE7AC560300885303008C530300BC
:1078D000A053030034590300B4530300D5F8789043
:1078E000B9F1000F00F03A8309F1100B4FF0000AD4
:1078F00089F800A007F11801584605F0BBFFA86FF2
:1079000007F13C01043005F0B5FFA86F07F1300125
:107910001C3005F0AFFFAB6FD5F83C907A681A6366
:10792000C3E90AAAB9F1000F2BD0D9F8003005F14C
:10793000280A514607F15400D3F80CB005F0AEFE0A
:1079400007F154014846D847002800F0FB8207F1B0
:10795000540005F073FFD5F83C90D9F8003051463B
:1079600007F15400D3F814A005F098FEAB6F484619
:1079700007F154022946D04707F1540005F05EFF95
:10798000AB6F226801211269197020469047431C91
:1079900000F0CD815FFA80FABAF10D0F236820461E
:1079A00000F0CE81DB6A984700283FF482AE514652
:1079B0002846FFF743FD236820461B699847411C72
:1079C000E8D196E10C23F918002207F1480006F0EF
:1079D000E7F9CE4907F1540005F046FE07F15401DE
:1079E00007F1480006F04CF9824607F1540005F013
:1079F00025FF07F1480005F021FFBAF1000F3FF421
:107A000018AF3A2107F10C0006F0A8F97B69821C37
:107A100007F10C0107F1540006F0C2F907F1540117
:107A200007F1300005F04CFF07F1540005F006FFA8
:107A30000D22214607F1540005F0B0FB07F1540078
:107A400005F0FCFE07F154000A22214605F0A6FBD2
:107A500007F1540005F0F2FEB9F1000F7FF43EAFDC
:107A6000EAE6AB4907F1540005F0FEFD2B6F002B51
:107A700045DD4FF00009CA4602E02B6F53453EDD5D
:107A8000686F07F15401484406F0B2F80AF1010AA0
:107A900009F118090028F0D007F1540005F0CEFED6
:107AA00007F1480005F0CAFE994907F1480005F0C2
:107AB000DBFD2B6F002B40F34B824FF00009CA46D1
:107AC00005E02B6F534509F1180940F34182686FB7
:107AD00007F1480148440AF1010A06F089F8002834
:107AE000EFD06B6F4B4403F10C0107F1540005F02C
:107AF000D5FD07F1540107F13C0005F0E1FE07F167
:107B0000540005F09BFE6BE6D5E91F324C4603EBB3
:107B1000430902EBC9090133EB67484607F1180135
:107B200005F0A8FE07F1240109F10C0005F0A2FE02
:107B3000784907F1540005F097FD314607F15400EC
:107B400005F0FAFF734906F023F8014607F10C002F
:107B500006F04EF8814607F1540005F06FFEB9F1CA
:107B6000000F3FF495AD07F13C0005F067FE07F10B
:107B7000300005F063FE07F1240005F05FFE07F119
:107B8000180005F05BFEEB6F2A6FC3F120089045EB
:107B9000A8BF9046B8F1000F1FDD002400E0EB6F96
:107BA000D5F88060696F03EB430206EBC206013330
:107BB00004EB440201EBC201EB6730464FEAC20915
:107BC00005F058FE6B6F4B4406F10C00013403F1D5
:107BD0000C0105F04FFEA045E1D16B6FB3B153F836
:107BE000044C04EB440403EBC404A3420AD0183C45
:107BF00004F10C0005F022FE204605F01FFE6B6F1D
:107C0000A342F4D1A4F1080006F074FAEC6F424BE1
:107C10009C429DBF04EB4400C00008304FF0FF3091
:107C200006F048FA1823C0E90034013C00F10808C6
:107C300010D4DFF8E89046464946304605F014FD7A
:107C4000013C06F10C00494605F00EFD631C06F1EF
:107C50001806F1D1EB6FC5F87480002B4FF00009C6
:107C60001CDD464600E06E6FD5F8801009EB490335
:107C700006EBC30601EBC3013046DC0005F0FAFD5C
:107C8000D5F88030234403F10C0106F10C0005F017
:107C9000F1FDEB6F09F101094B45E4DCD5F88030CB
:107CA000C5F87090002B00F0058253F8044C04EBEB
:107CB000440403EBC404A3420BD0183C04F10C00B1
:107CC00005F0BCFD204605F0B9FDD5F88030A34293
:107CD000F3D1A4F1080006F00DFA0023C5E91F3323
:107CE0004FF00108F9E42368DB6A984748B106F0D1
:107CF0002BFA23682046DB68984703462046002B72
:107D0000F1D0236820461B69984743E620530300BF
:107D1000A85303008853030055555505AC5603007E
:107D20002368DB6A98470028EBD006F00DFA236839
:107D30002046DB68984703462046002BF0D0E0E75A
:107D40001B699847B0F1FF3F824630D02368204638
:107D5000DB6A5FFA8AFA984700283FF4AAACBAF1C6
:107D60000A0F46D1236820461B699847B0F1FF3FB0
:107D70008246E9462FD023682046DB6A5FFA8AFAFA
:107D80009847002800F00781BAF12D0F36D00D2159
:107D90002846FFF753FB0A212846FFF74FFBCD4645
:107DA000FAE52368DB6A984748B106F0CDF9236805
:107DB0002046DB68984703462046002BF1D0236815
:107DC00020461B6998478246C0E72368DB6A9847CC
:107DD00048B106F0B9F923682046DB6898470346A6
:107DE0002046002BF1D0236820461B699847824625
:107DF000C1E70D212846FFF721FBCDE5236820468A
:107E00001B699847B0F1FF3F82461FD02368204688
:107E1000DB6A5FFA8AFA9847002800F0BC80BAF162
:107E20002D0F36D00D212846FFF708FB0A212846E2
:107E3000FFF704FB2D212846FFF700FBCD46ABE5FD
:107E40002368DB6A984748B106F07EF9236820462C
:107E5000DB68984703462046002BF1D02368204674
:107E60001B6998478246D1E70022013B07F11801C0
:107E700007F1540005F094FF07F1540107F11800D1
:107E800005F01EFD07F1540005F0D8FC4FF0000985
:107E9000ACE4B268D31D23F00703ADEB030D6946D4
:107EA000204605F059F9316868460BF07AF9C7F8B1
:107EB00000D0002876D10D212846FFF7BFFA0A210D
:107EC0002846FFF7BBFA51462846FFF7B7FA514656
:107ED0002846FFF7B3FAB368BBB108EE109AA9467B
:107EE00025463C680DF1FF3BDA4648461BF8011F6A
:107EF000FFF7A4FA0AF1020AB368AAEB040A534591
:107F0000F2D82C464D4618EE109A236820461B697D
:107F10009847421C09D05FFA80FACD463CE52368B9
:107F2000DB6A984748B106F00FF923682046DB6802
:107F3000984703462046002BF1D0236820461B6952
:107F40009847E8E707F1540005F078FCAB6F18E5B7
:107F5000414607F1540005F087FBCAE540F63400BE
:107F600006F098F840F63402814600210AF024FB1E
:107F700009F1100B414609F1040005F075FB41467B
:107F8000584605F071FB414609F11C0005F06CFBF9
:107F9000C5F87890AAE42846FFF794FA8046CD46C3
:107FA000FFF78BBBD5F83CB0BBF1000F00F08D8024
:107FB000DBF8003005F1280ADB683B60514607F129
:107FC000540005F06BFB3B6807F154015846984795
:107FD000002873D007F1540005F030FCEB6B3B60D8
:107FE0001A68514607F15400D2F814B005F056FB58
:107FF0003B6807F1540218462946AB6FD84707F192
:10800000540005F01BFCD5F83CB0AB6FD3E90A2156
:108010000A4402219A621970BBF1000F28D0DBF8E4
:1080200000305146DB683B6007F1540005F036FB39
:108030003B6807F154015846984700284DD007F196
:10804000540005F0FBFBD5F83CB0DBF8003051469E
:1080500007F15400D3F814A005F020FB5846AB6F8D
:1080600007F154022946D04707F1540005F0E6FB1A
:108070000D22214607F1540005F090F807F1540154
:1080800007F10C0005F01CFC07F1540005F0D6FBCD
:1080900021460A2207F1540005F080F807F1540048
:1080A00005F0CCFB114907F10C0005F0BDFDC8B18E
:1080B000CD4658E54FF00108FFF70FBB07F154001C
:1080C00005F0BCFBD5F83CB09FE7AB6FD3E90A21C4
:1080D0000A4402219A621970CAE707F1540005F0B8
:1080E000ADFBC5E7CD46FFF7D3BA00BF8853030009
:1080F0002DE9F0410D4682B02149074605F0B4FA5A
:10810000204BAE6893E8030000908DF80410EEB1A8
:10811000002408E02B281C4600D12021384605F019
:1081200093FCB44212D22146284605F0F5FD2528DD
:10813000014604F10103EDD104F10208B04509D371
:108140001C46384605F080FCB442ECD3384602B0F9
:10815000BDE8F0811946284605F0DEFD414603469C
:1081600028468DF8023005F0D7FD00210346102285
:1081700068468DF803300BF0A5F80334C1B2CDE7A3
:10818000AC560300B85303002DE9F04186B01C46FD
:10819000DDE90D030C9E0F9D1B683768D5F8008044
:1081A00016460D4602682146684605F0F9FD694607
:1081B00003A8FFF79DFF03A9284605F081FB03A84C
:1081C00005F03CFB684605F039FB7B1C06D008F146
:1081D000FF339F4205DBB8F1FF3F02D006B0BDE898
:1081E000F08143467A1C214603A805F0D9FD03A976
:1081F0006846FFF77DFF6946304605F061FB68463B
:1082000005F01CFB03A805F019FB06B0BDE8F081E2
:108210002DE9F04F2DED028BA7B004460E4605A8C0
:108220000D2204F0BBFF314623A80A2204F0B6FF5A
:1082300023A805F003FBD4F88430002B1BDD0027B6
:10824000DFF82093B846D4F88800384400F10C05D4
:10825000494623A805F008FA23A9284605F030FB73
:1082600023A805F0EBFAD4F8843008F1010843455F
:1082700007F11807E7DC202105A805F06FFD00F1E4
:10828000010805464246202105A805F077FD6A1C35
:10829000074600F04A81431C00F047812B4608A89E
:1082A000002205A905F07CFD42460BA83B4605A926
:1082B00005F076FD079B07F1080205A90EA805F059
:1082C0006FFD0E980AF0CAF8A64984F8340011A888
:1082D00005F0CAF90BA83F2105F040FD0546681CD2
:1082E00040F0DA8004F128090BA9484605F0C2FAEB
:1082F00000239D4984F8A83008A805F095FC804625
:10830000002800F019824FF0FF080227256C84F83E
:108310002470002D00F06381BA4603E06D688DB1D2
:1083200094F824A02B68494623A89F6805F0B6F965
:1083300023AA51462846B847074623A805F07EFAE7
:10834000002FEBD014AB8749E563184608EE103ACE
:1083500005F08AF9B8F1030F00F24981814917A8A5
:10836000894605F081F949461AA805F07DF91DAF47
:1083700000231D46384649460293A24605F074F98B
:10838000039501950D22314623A804F007FF23A988
:1083900005A805F095FA23A805F050FA0A223146FF
:1083A00023A804F0FBFE23A805F048FA494605A8D7
:1083B00005F03AFC0546002840F0E2803A2105A885
:1083C00005F0CCFC411C044600F0DA8003462A4646
:1083D00005A923A805F0E4FC23A91AA805F070FA62
:1083E00023A805F02BFA079B621C05A923A805F01A
:1083F000D7FC23A9384605F063FA23A805F01EFA36
:10840000384605F0BDFDDAF884201D9BDDF868B024
:108410000093002A21DDA84605E0DAF884304345C0
:1084200005F1180519DDDAF888005946441923A822
:1084300005F01AF9204623A905F022FC044623A8DA
:1084400008F1010805F0FAF9002CE6D0DAF8880006
:10845000009928440C3005F055FA444923A805F04A
:1084600003F923A91AA805F00BFC044623A805F07C
:10847000E5F9002C32D03E4923A805F0F5F823A9F0
:10848000384605F01FFC044623A805F0D7F9002C58
:1084900055D00023019375E70D9B6A1C20A80BA9FA
:1084A00005F07EFC20A923A8FFF722FE23A911A82E
:1084B00005F006FA23A805F0C1F920A805F0BEF9D9
:1084C0002B4600220BA923A805F06AFC23A90BA8C0
:1084D00005F0F6F923A805F0B1F903E7254923A82B
:1084E00005F0C2F823A91AA805F0CAFB044623A880
:1084F00005F0A4F924B1384605F06CFD029041E77F
:108500001D4923A805F0B0F823A91AA805F0B8FB67
:10851000044623A805F092F9002C3FF433AF394606
:108520000AF19C0005F0A6F92CE7002405A805F047
:1085300085F9204627B0BDEC028BBDE8F08F0F49CE
:1085400023A805F091F823A9384605F0BBFB0546A2
:1085500023A805F073F9002D00F01981012301947F
:1085600003930FE7AC560300C053030020530300EE
:10857000345903003053030020540300EC5303002C
:10858000AA4923A805F070F8019B5446002B00F07F
:10859000E980039B4BB1139B1BB1262111A805F069
:1085A00053FA23A911A805F001FA11A92046FEF7F4
:1085B00077FE029B204617AA3146FEF7B3FF00283C
:1085C00000F0D78023A805F039F9384605F036F9D0
:1085D0001AA805F033F917A805F030F996E014ABA6
:1085E0009249E563184608EE103A05F03DF88F49C8
:1085F0001DAF8946384605F037F820A8494605F0F2
:1086000033F8A2460D22314623A804F0C7FD23A962
:1086100005A805F055F923A805F010F90A223146FE
:1086200023A804F0BBFD23A805F008F9494605A8D6
:1086300005F0FAFA054600285ED13A2105A805F0B2
:108640008DFB431C044657D003462A4605A923A8A0
:1086500005F0A6FB23A9384605F032F923A805F05A
:10866000EDF8079BA21C05A923A805F099FB23A9F7
:1086700020A805F025F923A805F0E0F8DAF8842011
:10868000209BDDF874B00093002A21DDA84605E0A8
:10869000DAF88430434505F1180519DDDAF8880069
:1086A0005946441923A804F0DFFF204623A905F00A
:1086B000E7FA044623A808F1010805F0BFF8002CEA
:1086C000E6D0DAF88800009928440C3005F01AF951
:1086D000574923A804F0FCFF23A9384605F0D0FA37
:1086E000044623A805F0AAF8002C8BD020A90AF193
:1086F0009C0005F0BFF885E7504611A9FEF7D0FDB4
:1087000020A805F09BF8384605F098F83368304605
:108710009B699847012418EE100A05F08FF811A8FC
:1087200005F08CF80EA805F089F80BA805F086F87E
:1087300008A805F083F8F9E63E4908A805F074FAA0
:1087400000285AD00327256C84F82470002D7FF46C
:10875000E3AD14AB3549E563184608EE103A04F072
:1087600083FFFBE5029D23A8691C05F06FF8002834
:108770004DD123A805F062F8384605F05FF81AA835
:1087800005F05CF817A805F059F80024C3E72A495A
:1087900023A804F069FF23A9384605F093FA04469C
:1087A00023A805F04BF8002C3FF4ECAD3D213846F2
:1087B00005F0D4FA1F9B421C394623A805F0F0FAB5
:1087C00023A917A805F07CF823A805F037F81B4962
:1087D00020A804F049FF494623A804F045FF23AA36
:1087E00020A917A805F00AFB23A805F027F820A860
:1087F00005F024F801230193C4E5114908A805F008
:1088000013FA002861D04FF0030806279BE7DDF834
:10881000048023A8414605F089FA80F80080259B52
:108820009D4232D9A94641F2893810E0AC56030086
:1088300020540300C8530300105403001C540300C9
:10884000D0530300B8F101084AD002F0ADFB336801
:108850003046DB68984705460120002DF2D0259B65
:10886000EA1891453AD2A9EB0302551E5AB1336872
:1088700030461B699847013DC1B223A805F0E4F8D2
:108880006A1CF4D1259B9945CDD8029A9A427FF46F
:1088900070AF039B93BB11A92046FEF701FD029B1D
:1088A000002B3FF48FAED4E91C3503EB430205EBFC
:1088B000C20501331E492367284605F04DF823A958
:1088C00005F10C0004F0D6FF7CE61A4908A805F073
:1088D000ABF950B14FF00408072717E5013DC6E793
:1088E000259B029A9A42D4D043E7134908A805F081
:1088F0009BF950B14FF00108042724E7139B8BB973
:1089000023A911A805F052F8C5E70C4908A805F0FD
:108910008BF918B94FF0FE080127F7E44FF0020871
:10892000052710E7262111A805F08EF8E8E700BF1B
:1089300028540300D8530300E0530300E45303001A
:1089400070B582B000230F4E00931A4619460E4DA3
:108950000E480F4C04F098F930465021FDF780FF87
:108960002A460C49304609F0B7FB0B49204604F073
:108970007BFE0A492A46204602B0BDE8704009F055
:10898000ABBB00BFB462002000600020A0620020EA
:10899000A8620020DD630200AC5603003DD802004F
:1089A0002DE9F04101218CB00D2004F0AFF8002139
:1089B0000D2004F0EBF8A9484FF4E131044604F02F
:1089C00089FD204604F088FD0028FAD0A44907A8B4
:1089D00004F04AFEA34904A804F046FE04A907A82F
:1089E00005F0AAF801469D4804F0B2F904A804F085
:1089F00025FF07A804F022FF9B4907A804F034FED6
:108A00009A4904A804F030FE04A907A805F094F8D8
:108A10000146924804F042FA04A804F00FFF07A8A8
:108A200004F00CFF924801F0F7F8FF2800F0638192
:108A300001F0B8F8014601A804F016FE8D4907A818
:108A400004F012FE07A901A805F004F9044607A8DE
:108A500004F0F4FE002C40F04981874E3368032B6C
:108A600012D0864F7D4D864C3946284604F042F997
:108A70002146284604F058FA824A7D48214601F0F2
:108A800093F803283060EFD17F49804D804F04A8D0
:108A900004F01EFE00230820CDE90753CDE9093379
:108AA0000B9305F0F7FA7B4B80460898C8E90073F2
:108AB00050B10468013C046034B9DDE90A139847F9
:108AC000CDE90844CDE90A44042005F0E3FA002288
:108AD00002600168704E0B96034601316F481960C1
:108AE00007AA04A9CDE909880893FDF75BFF089858
:108AF000079530B10368013B036013B9DDE90A1340
:108B0000984704A804F09AFE654904A804F0E0FD23
:108B100000230820CDE90753CDE909330B9305F075
:108B2000B9FA604B80460898C8E9007350B10468F0
:108B3000013C046034B9DDE90A139847CDE90844E3
:108B4000CDE90A44042005F0A5FA0022026001687C
:108B50000B96034601315148196007AA04A9CDE9D3
:108B600009880893FDF71EFF0898079530B1036840
:108B7000013B036013B9DDE90A13984704A804F028
:108B80005DFE494904A804F0A3FD00230820CDE9B7
:108B90000753CDE909330B9305F07CFA804608981A
:108BA000424BC8F8003050B10468013C046034B94D
:108BB000DDE90A139847CDE90844CDE90A440420C9
:108BC00005F068FA0022026001680B960346013145
:108BD0003248196007AA04A9CDE909880893FDF76E
:108BE000E1FE0898079530B10368013B036013B9B3
:108BF000DDE90A13984704A804F020FE082005F0D8
:108C000049FA80462A4B0760C8F80430042005F072
:108C100041FA00230360214D03680446E86C0133E8
:108C2000236030B10368013B036013B9D5E9151324
:108C300098472368EC64013323602368C5F85080AB
:108C4000013BC5E9158623601BB941462046FDF767
:108C500077FB0023114885F835302BE0246800208D
:108C60003054030050540300605403006854030060
:108C70008C630020A854030060630020CC540300E0
:108C80001060002008600020E85403001058030022
:108C900078580300FD8E020041630200B462002098
:108CA000EC54030021910200F8540300EC5C030033
:108CB000AD8F020000F0C0FED5F884208AB11049C3
:108CC000104804F017F807A80F4900F09BFF07A908
:108CD0000C4804F079F901A804F0B0FD0CB0BDE82F
:108CE000F0810A481146FDF7B1FEE8E7084905485A
:108CF00004F084F8B1E60749024804F07FF8FEE783
:108D000000550300246800208C630020B46200201A
:108D1000B05403009054030090F8A8302DE9F041BE
:108D20008F6804460D465BB904F1100629683A467F
:108D3000304600F093FB94F8A830D3B9BDE8F08139
:108D40000B2009F001FC80460028EDD00C4B0D49AA
:108D50003A460AF0CDF940460AF009FA04F1100645
:108D600002464146304600F079FB404609F0F4FBEC
:108D7000DCE730460249BDE8F041022200F06EBB5C
:108D80005C5003001855030070B58EB029492A4C79
:108D900005A804F09DFC294908A804F099FC059B4E
:108DA000274903930BA804F05FFC0A9A039B0092E7
:108DB0000BA92046C822FEF7A5F80D9A0B9904F1DD
:108DC000100000F04BFB0A9D55B90BA804F036FDCE
:108DD00008A804F033FD05A804F030FD0EB070BD06
:108DE00094F8A83073B9089916482A4600F036FB63
:108DF00094F8A830002BE8D013491248022200F062
:108E00002DFBE2E70B2009F09FFB06460028EAD085
:108E10000D4B0E492A460AF06BF930460AF0A7F9C5
:108E20003146024604F1100000F018FB304609F00C
:108E300093FBD8E720550300B46200202C550300B3
:108E4000AC560300C46200205C50030018550300B8
:108E50002DE9F0411D4688B004460E4605A8244978
:108E6000039204F001FCAA68039B0092204632465C
:108E700005A904F11006FEF745F8079A0599304652
:108E800000F0ECFAAF682FB905A804F0D7FC08B0E1
:108E9000BDE8F08194F8A8309BB929683A4630467D
:108EA00000F0DCFA94F8A830002BEDD01149022232
:108EB000304600F0D3FA05A804F0C0FC08B0BDE8C5
:108EC000F0810B2009F040FB80460028E5D0094BDB
:108ED00009493A460AF00CF940460AF048F9414679
:108EE0000246304600F0BAFA404609F035FBD4E7B6
:108EF000AC5603005C5003001855030070B5012107
:108F0000F0B00D2003F042FE02F042F81F49204A63
:108F1000204D214B214C0093A1FB00108009A2FBA6
:108F200000614909A2FB01625209A5FB0065C2EB81
:108F30000216A1EB8606C1EB0111A0EB81002D0CFE
:108F4000CDE903260590164A02950CA8019440F23B
:108F50008F110AF099F8134906A804F0B9FB0CA97F
:108F600009A804F081FB069A0F4809ABC821FFF756
:108F70006FFF09A804F062FC06A804F05FFC002162
:108F80000D2003F003FE70B070BD00BFD34D621022
:108F90008988888807452EC250540300685403000E
:108FA000405503008C560300B46200202DE9F047C1
:108FB00001218CB00D2003F0E9FD4D4D4D4968466F
:108FC00004F086FB4C49684604F08CFD05F128014D
:108FD00009A804F063FB09A9684604F0E7FC09A8A6
:108FE00004F02CFC4549684604F07CFD444B454A9E
:108FF00095F82410684601290CBF1146194604F063
:1090000071FD4149684604F06DFD296F684604F022
:109010003DFD3E49684604F065FD2B6F002B4FDD9A
:109020000024DFF8F0A0DFF8F080DFF8F0902746AA
:1090300033E0696F01EBC20104F030FB03A906A81D
:1090400004F07AFD494604F0A3FD2B6FBB420646AF
:1090500004EB440209A841462EDD696F01EBC20111
:109060000C3104F01BFB09A9304604F065FD2749CB
:1090700004F08EFD0146684604F098FC09A804F04F
:10908000DDFB03A804F0DAFB06A804F0D7FB0134EB
:109090002B6FE4B29C42274612DA514606A804F030
:1090A000E3FA2B6FBB4204EB440203A84146C0DC49
:1090B00003A804F0D9FAC1E709A804F0D5FAD2E769
:1090C000134909A804F004FB099A09486B464FF4B8
:1090D000CA71FFF7BDFE09A804F0B0FB00210D2006
:1090E00003F054FD684604F0A9FB0CB0BDE8F0871E
:1090F000B46200209C560300B0560300B85603002B
:10910000C853030098560300C4560300B453030029
:1091100020550300B4560300AC560300585003001A
:109120002DE9F0419AB02E492E4CDFF8D8802E4F11
:1091300002A804F099FA40F6B83102A804F086FBC0
:109140002A4902A804F0CEFC294902A804F0CAFC6E
:10915000284902A804F0C6FC09F04AFF84FB003449
:10916000C317C3EBA41404EB8414A0EB44040A2635
:1091700009F03EFF054601F00BFF2844A8FB003232
:109180002346D40904EB8414A0EB44043246C4F112
:109190008C010A36CDE90061C3F18C03394608A879
:1091A00009F0A6FF08A902A804F024FCB6F5967FF2
:1091B000DED1114902A804F095FC104905A804F07D
:1091C00087FA059A0E4802ABC821FFF741FE05A8B1
:1091D00004F034FB02A804F031FB1AB0BDE8F081C2
:1091E000AC5603007FE0077EA0570300D45603006F
:1091F000285703008C570300DC570300EC5703008B
:10920000B4620020FDC00FFC2DE9F041C66B88B0B0
:10921000044666B3336890F82420D3F81080019296
:1092200005AD00F128073946284604F037FA3046E4
:10923000019A2B462146C0470646284604F0FEFA0E
:1092400026B9206DC8B103689B68984794F8A83088
:1092500083BB1E49284604F007FA2946384604F025
:109260002FFB284604F0EAFA08B0BDE8F081006D53
:1092700004F1280705AD0028E5D1154902A804F03E
:10928000F3F902A9284604F009FA3946284604F001
:1092900053FC104A03464FF4CA712046FFF7D8FD2D
:1092A000284604F0CBFA02A804F0C8FA94F8A830D3
:1092B000002BCED00549284604F0D6F92046294691
:1092C000FFF72AFD284604F0B9FAC2E7AC560300BE
:1092D000FC570300A458030070B54A4C94F835209D
:1092E00086B0E2B901A8214600F002FC01A800F016
:1092F00091F808B906B070BDDDE90305029B9DF841
:109300001410BDF8162063610123C4E9060584F832
:109310002010628484F8353001F03AFEA0633A48A8
:1093200000F044F920B394F83530012B29D0022BFA
:1093300006D101F02DFEA36BC01AB0F5FA6F3FD92C
:1093400001A800F037FBDDE90305029B9DF814102E
:10935000BDF816206361C4E90605002384F82010D7
:10936000628484F83530284800F0D8F806B070BD23
:10937000254800F08BF80028E2D094F83530012B16
:10938000D5D1214800F082F80546E0B901F000FE91
:10939000A26B41F28833801A984211D901A800F0DB
:1093A00009FBDDE90310C4E90610029E9DF81420B4
:1093B000BDF8163084F83550666184F82020638447
:1093C00004F0C2FECFE71049A1F11000FEF720FF24
:1093D0000028B5D00C4841F2883103F0BBFE0948A3
:1093E0006FF00103C4F88C30FFF70EFF064800F061
:1093F000DDF80028A4D0022384F8353001F0C8FD40
:10940000A063B0E7B4620020C4620020002070476F
:10941000704700BF007CFF3818BF0120704700BFB5
:1094200030B587B0044602A80191154603F024FC2C
:109430000199084802AA00F0F1FB48B12368064AE6
:10944000039904920591DB692A46204604A99847AE
:1094500007B030BD8C630020605E030038B5044661
:10946000007CFF2800D022B9012300256360284634
:1094700038BD92B200F0AAFE05460028F4D0207C48
:1094800000F0E6FE0028EFD0284638BD017CFF2919
:1094900001D100207047014800F0FABB986300201A
:1094A00010B40C461346017C024822465DF8044B7A
:1094B00000F06EBC9863002003460248197C00F05F
:1094C00023BC00BF9863002000B583B00023007C5C
:1094D00001936A4601A9ADF8003001F083FA9DF8C6
:1094E00000309DF8010000EB032080B203B05DF86E
:1094F00004FB00BF10B582B0002304466A46087C16
:10950000019301A9ADF8003001F06CFA01A92046E1
:1095100003F0CEFB204602B010BD00BF38B50446B4
:10952000007CFF2817D000F06FFD207CFF280CD0B6
:10953000322500F09FFD034664206BB1013D0BD046
:1095400001F032FD207CFF28F3D10146034800F0F2
:109550008FFBFF23237438BD207CF6E7986300203F
:1095600010B503680F4ADB68934282B0044616D1F7
:10957000017CFF2903D14FF0FF3002B010BD0A4833
:1095800000F086FB0028F6D0217C074801230DF16E
:10959000070200F0FDFB9DF8070002B010BD9847E0
:1095A000F0E700BF8D94020098630020017CFF2942
:1095B00022D00368134ADB68934210B504461DD1DC
:1095C000114800F065FBA8B9217CFF290BD00846A3
:1095D00000F050FD0A280DD840F2EF4323FA00F0C6
:1095E000C30707D5217C084800F042FBFF23237402
:1095F000002010BD012010BD0020704798470028B2
:10960000E2D0F7E78D9402009863002030B503683C
:10961000134A5B6883B093428DF8071018D1044653
:10962000007CFF2806D001220DF1070100F0CEFDDD
:10963000054628B9002501232846636003B030BDE4
:10964000207C00F005FE0028F4D0284603B030BD91
:1096500001220DF1070198470546284603B030BDA9
:109660005D9402002DE9F843037CFF2B04460E466F
:1096700015461ED002683C49926A8A4270D118464B
:1096800000F0C2FC207CFF280DD0322700F0F2FC55
:1096900003466420002B65D0013F63D001F084FCB9
:1096A000207CFF28F2D10146304800F0E1FAFF2388
:1096B000237400F019FEFF28024620744DD0706814
:1096C0002B4EDFF8B080294F2946022300F006FC1C
:1096D00001F05EFC2368DA6AB24205464FF0FF09EA
:1096E0002BD1217CFF291AD0DB68434532D1384683
:1096F00000F0CEFA28BB217CFF290BD0084600F0F1
:10970000B9FC0A281DD840F2EF4323FA00F0C30742
:1097100017D5217C384600F0ABFA84F8109001F0A0
:1097200037FC42F20F73401B98420AD8012001F027
:109730003BFC2368DA6AB242D3D020469047002827
:10974000EDD023682046DB6A9847003818BF012017
:10975000BDE8F88320469847CCE70020BDE8F883B1
:109760009047A6E7207C9EE71D95020098630020A5
:10977000AD9502008D9402002DE9F843037CFF2B88
:1097800004460E4615461ED002683C49926A8A423B
:1097900070D1184600F038FC207CFF280DD032270D
:1097A00000F068FC03466420002B65D0013F63D0C5
:1097B00001F0FAFB207CFF28F2D10146304800F08E
:1097C00057FAFF23237400F08FFDFF280246207410
:1097D0004DD070682B4EDFF8B080294F294600230A
:1097E00000F07CFB01F0D4FB2368DA6AB242054644
:1097F0004FF0FF092BD1217CFF291AD0DB684345AC
:1098000032D1384600F044FA28BB217CFF290BD026
:10981000084600F02FFC0A281DD840F2EF4323FA37
:1098200000F0C30717D5217C384600F021FA84F8F0
:10983000109001F0ADFB42F20F73401B98420AD822
:10984000012001F0B1FB2368DA6AB242D3D020468E
:1098500090470028EDD023682046DB6A98470038FF
:1098600018BF0120BDE8F88320469847CCE70020C8
:10987000BDE8F8839047A6E7207C9EE71D9502008F
:1098800098630020AD9502008D9402002DE9F0430D
:10989000057CFF2D83B004460E4617461ED0036894
:1098A000404A9B6A934279D1284600F0ADFB207C68
:1098B000FF280DD0322500F0DDFB03466420002B8D
:1098C0006ED0013D6CD001F06FFB207CFF28F2D1FF
:1098D0000146354800F0CCF9FF23237400F004FD65
:1098E000FF280546207455D0304609F040FC02227E
:1098F0003B46C1B2009530460192002200F034FB95
:1099000001F046FB2368294EDA6ADFF8A480264F6F
:10991000B24205464FF0FF092BD1217CFF291AD016
:10992000DB68434533D1384600F0B2F928BB217CCF
:10993000FF290BD0084600F09DFB0A281DD840F2F5
:10994000EF4323FA00F0C30717D5217C384600F017
:109950008FF984F8109001F01BFB42F20F73401B4B
:1099600098420AD8012001F01FFB2368DA6AB2424C
:10997000D3D0204690470028EDD023682046DB6AEC
:109980009847003818BF012003B0BDE8F083204697
:109990009847CBE7002003B0BDE8F08398479DE7E8
:1099A000207C95E71D95020098630020AD9502008C
:1099B0008D940200002210B44FF47A74044942607E
:1099C000FF22846001605DF8044B0274704700BFA1
:1099D000005D030030B400254FF47A74034A01742B
:1099E000C0E90154026030BC704700BF005D030055
:1099F000007CFF2801D000F03DBB0020704700BF75
:109A000000B583B0002300931A461946024803F0BC
:109A10003BF903B05DF804FB6463002000B583B03C
:109A2000002300931A461946024803F02DF903B0AB
:109A30005DF804FB6C63002010B5044600F054FC94
:109A4000FF28207200D110BD014600226089BDE8C8
:109A5000104000F003BA00BF30B50368124A5B68DB
:109A600083B093428DF8071016D104460122007A84
:109A70000DF1070100F0AAFB054628B900250123D6
:109A80002846636003B030BD207A00F0E1FB002877
:109A9000F4D0284603B030BD01220DF107019847EC
:109AA0000546284603B030BDAD9A020038B50446DD
:109AB00022B9012300256360284638BD007A92B29E
:109AC00000F084FB05460028F3D0207A00F0C0FBAC
:109AD0000028EED0284638BD30B4044C4181002522
:109AE000FF22C0E90045027230BC70474C5D0300A4
:109AF00030B50B7AFF2B87B0044605D018461546C3
:109B000000F0F0FAFF2806D1FF212046FFF762FFA0
:109B1000204607B030BD014601A8FFF75BFF1DB12D
:109B200001A8FFF765FF2870DDE90305029B0749DF
:109B30009DF814206360BDF816302160C4E9020569
:109B400020462274638207B030BD00BF005D030071
:109B500000B583B0002300931A461946024803F06B
:109B600093F803B05DF804FB7463002000B583B084
:109B7000002300931A461946024803F085F803B003
:109B80005DF804FB7C63002000B583B000230093E4
:109B90001A461946024803F077F803B05DF804FB53
:109BA0008463002001F0A6B8F8B5054608460C46C7
:109BB000164609F0DCFA0746304609F0D8FA0346A3
:109BC0003246F9B22046DBB200F042FF013001D14B
:109BD0000420F8BD01F0DCF90024064606E001F09F
:109BE000E3F900F07FFF0228044608D801F0D0F91D
:109BF0002A6803469B1B93424FF06400EFD3204634
:109C0000F8BD00BF10B5044603F036F8204600F05A
:109C100095FF204610BD00BF00F064BF0846114606
:109C200001F05CB800B583B0002300931A461946D2
:109C3000044803F029F8044B4CF250321A6003B088
:109C40005DF804FB906300208C630020F8B50746A4
:109C5000044600F178060025206820B108F07CFC5D
:109C6000C4E90055A5600C34B442F5D13846F8BDBE
:109C700001EB410170B58E00054600EB810480596F
:109C800028B108F069FC00236360AB51A36070BD8C
:109C90002DE9F04301EB410300EB830983B0D9F8D0
:109CA0000850CDB99F000C464E00C1598046F1B115
:109CB00040F2DC53E0B20DF10602ADF8063000F0E0
:109CC0004FFA344460B108EB840158F80730BDF80E
:109CD0000650C9F804308D60284603B0BDE8F08313
:109CE00008EB84008568284603B0BDE8F08340F2A5
:109CF000DC5008F029FCC9F80400014648F80700C8
:109D0000C9F80850D4E700BF2DE9F04101EB410349
:109D100000EB83089F00D8F8083084B00C46064654
:109D20004D00ABB9C15911B340F2DC530DF10E0235
:109D3000E0B2ADF80E3000F013FA88B1F359C8F86C
:109D400004302A19BDF80E3006EB82029360DBB1B5
:109D5000254406EB85046368187804B0BDE8F081FB
:109D60002B1906EB83039B68002BF1D10CE040F22A
:109D7000DC50019308F0E8FB019BC8F804000146A1
:109D8000F051C8F80830CFE74FF0FF30E5E700BFEB
:109D90002DE9F04F0D4601EB410100EB810A83B044
:109DA000DAF808B0044690461E464FEA4509BBF172
:109DB000000F18D18F00C15989B340F2DC530DF167
:109DC0000602E8B2ADF8063000F0CAF909EB050367
:109DD00004EB8303F8B1E259BDF80670CAF8042019
:109DE0009F60A7B1BB464D445E4504EB85043746F2
:109DF000C8BF5E46324661684046C8BF374608F075
:109E0000B3FBD4E9012332449B1BC4E90123384648
:109E100003B0BDE8F08F9F68002FF8D0E2E740F272
:109E2000DC5008F091FBCAF804000146E051CAF882
:109E300008B0C2E708B5064B78221846002108F0A2
:109E4000BBFBBDE80840034A034908F045B900BF21
:109E500098630020006000204D9C020010B51E4B4E
:109E600084B01B788DF8071004468DF8062083B364
:109E700000F0F2FA00F0AEFA0321282000F090FD85
:109E80002046002100F072FD0DF1070000220121A3
:109E900000F02CFD012211460DF1060000F026FD18
:109EA000002400F0D3FA00F0C1FA00F0D5FA00F077
:109EB00091FA0DF10F030DF10E02012128208DF80A
:109EC0000E408DF80F4000F0D1FA00F0AFFA04B068
:109ED00010BD00F035FACBE71064002010B5214C1E
:109EE00084B0019020788DF803200C468DF8023064
:109EF000A0B300F0B1FA00F06DFA04212D2000F0BB
:109F00004FFD04210DEB0100002200F0EFFC204684
:109F1000002100F02BFD0DF103000022012100F0D3
:109F2000E5FC012211460DF1020000F0DFFC0024E7
:109F300000F07CFA00F090FA00F04CFA0DF10F03FB
:109F40000DF10E0201212D208DF80E408DF80F40ED
:109F500000F08CFA00F06AFA04B010BD00F0F0F9DD
:109F6000C7E700BF1064002070B5264C84B00646D9
:109F7000019222781D460C46002A3FD000F06CFA70
:109F800000F028FA05212D2000F00AFD2146304678
:109F9000002200F0ABFC042100220DEB010000F0D8
:109FA000A5FC2846002100F0E1FC0022012108A8C0
:109FB00000F09CFC01221146113409A800F096FC27
:109FC000A20704D0013400F041FAA307FAD100F04F
:109FD0002DFA002400F040FA00F0FCF90DF10F0317
:109FE0000DF10E0201212D208DF80E408DF80F404D
:109FF00000F03CFA00F01AFA04B070BD00F0A0F9CD
:10A00000BCE700BF1064002010B5194B84B01B786A
:10A010008DF8070043B300F01FFA00F0DBF90121CF
:10A020002E2000F0BDFC012211460DF1070000F0CA
:10A030005DFC002400F00AFA00F008FA00F0F6F9DE
:10A0400000F00AFA00F0C6F90DF10F030DF10E024F
:10A0500001212E208DF80E408DF80F4000F006FAF9
:10A0600000F0E4F904B010BD00F06AF9D3E700BFD6
:10A070001064002010B51A4B84B01B788DF80700CF
:10A0800053B300F0E9F900F0A5F901212F2000F009
:10A0900087FC012211460DF1070000F027FC002487
:10A0A00000F0D4F900F0D2F900F0C0F900F0D4F9D2
:10A0B00000F090F90DF10F030DF10E0201212F2098
:10A0C0008DF80E408DF80F4000F0D0F900F0AEF999
:10A0D0009DF80E0004B010BD00F032F9D1E700BFCA
:10A0E0001064002010B584B08DF8070000F072FCF9
:10A0F00080B31A4B1B7853B300F0AEF900F06AF945
:10A1000001212B2000F04CFC012211460DF107002B
:10A1100000F0ECFB002400F099F900F097F900F052
:10A1200085F900F099F900F055F90DF10D030DF1E5
:10A130000E0201212B208DF80D40ADF80E4000F0ED
:10A1400095F900F073F99DF80E0004B010BD00F011
:10A15000F7F8D1E7FF2004B010BD00BF1064002065
:10A1600030B5194B83B01B788DF807000D461446A7
:10A170003BB300F071F900F02DF90221452000F009
:10A180000FFC0DF107000022012100F0CBFB0122A2
:10A190000221204600F0C6FB00F058F900F046F915
:10A1A00000F05AF900F016F922462946452000F041
:10A1B00003FA00F03BF92088003818BF012003B0F3
:10A1C00030BD00F0BDF8D4E71064002070B51F4B1F
:10A1D00084B01B788DF807000E4615469BB300F03F
:10A1E0003BF900F0F7F80221442000F0D9FB0022EF
:10A1F00001210DF1070000F095FB05F10904012292
:10A200003046294600F08EFBA20704D0013400F04E
:10A210001DF9A307FAD100F009F900F01DF900F0CB
:10A22000D9F800230DF10D020DF10E014420ADF817
:10A230000E308DF80D3000F04BFA00F0F7F8BDF855
:10A240000E0004B070BD00F07BF8C8E71064002079
:10A2500030B585B00024234D8DF807008DF80E40F1
:10A260008DF80F402B783BB300F0F6F800F0B2F811
:10A2700001212A2000F094FB012211460DF1070074
:10A2800000F034FB00F0E2F800F0E0F800F0CEF867
:10A2900000F0E2F800F09EF80DF10F030DF10E0250
:10A2A00001212A2000F0E2F800F0C0F89DF80E30FD
:10A2B0002BB1012005B030BD00F042F8D4E7642096
:10A2C00000F072FE9DF80E000134A4B218B9192CEA
:10A2D000C8D105B030BDB4F1190018BF012005B0D8
:10A2E00030BD00BF1064002030B5144B1B7883B024
:10A2F0000BB300F0B1F800F06DF800213F2000F042
:10A300004FFBFF2500F092F8002400F0A5F800F0C4
:10A3100061F80DF107030DF1060201213F208DF8D0
:10A3200006508DF8074000F0A1F800F07FF89DF886
:10A33000060003B030BD00F003F8DAE71064002037
:10A34000F8B51F4C1F4D204F2048042202230A2637
:10A350002A7023703E7000F005FD2878012102F07C
:10A36000D5FB3878002102F0D1FB2078012102F0E2
:10A37000CDFB0121162002F0C9FB0121162002F0BD
:10A3800005FC2878012102F001FC0021207802F070
:10A39000FDFB304600F008FE0121207802F0F6FBBC
:10A3A00040F2EE2000F000FE0021162002F0EEFB4D
:10A3B0000021162002F0AAFB054B01221A70F8BDFD
:10A3C0001660002017600020156000203064002017
:10A3D0001064002030B583B0104B00934FF48073AD
:10A3E000ADF8043002AB13E906000D480D4D00F046
:10A3F000FDFC0D4B0021187802F0C8FB00F0C8FDF1
:10A40000044604E000F0C4FD001B042804D82878AA
:10A4100002F0DAFB0128F5D103B030BD00127A005A
:10A4200030640020156000201760002008B5054B3F
:10A430000121187802F0AAFBBDE80840024800F0AC
:10A4400037BD00BF17600020306400200148FF21A5
:10A4500000F034BD3064002010B5034C207802F0C9
:10A46000B3FB0028FAD110BD156000202DE9F84398
:10A47000DFF824910746884616461D4640F2E93427
:10A4800003E0013C3BD0E02805D0FF21484600F026
:10A4900015FDEF28F5D14048FF2100F00FFD47F0F2
:10A4A00080078742044630D03C493D4802F074FCA6
:10A4B0003C493B4802F070FC3B49394802F06CFCD7
:10A4C0000A2240F24311364802F022FE374934484E
:10A4D00002F062FC3649324802F05EFC30483946F0
:10A4E000102202F015FE33492D4802F055FC21469A
:10A4F00010222B4802F0DCFD0020BDE8F883E028A4
:10A5000018BF2046C7D0BDE8F8832348FF2100F0DC
:10A51000D5FC804504461CD11F48FF2100F0CEFC2D
:10A52000002D36D0287068B11B4F741EFF213846AD
:10A5300000F0C4FC214604F8010F02312B78891B7E
:10A540008B42F3DCFF21144800F0B8FC0120BDE889
:10A55000F8831249124802F01FFC1249104802F019
:10A560001BFC11490E4802F017FC0A2240F245116B
:10A570000B4802F0CDFD0D49094802F00DFC0C49D5
:10A58000074802F009FC41461022054802F088FD08
:10A59000A9E72878C7E700BF306400205C5D0300AE
:10A5A00024680020605D0300AC5D0300B05D030023
:10A5B000B45D0300B85D03002DE9F041DFF8F080E1
:10A5C00005460F46164640F2E93403E0013C3BD015
:10A5D000E02805D0FF21404600F070FCEF28F5D1BF
:10A5E0003348FF2100F06AFC45F0800585420446AF
:10A5F00030D03049304802F0CFFB30492E4802F0CD
:10A60000CBFB2F492C4802F0C7FB0A224FF4C17143
:10A61000294802F07DFD2B49274802F0BDFB2A495D
:10A62000254802F0B9FB29461022234802F070FDAC
:10A630002649214802F0B0FB214610221E4802F0B4
:10A6400037FD0020BDE8F081E02818BF2046C7D0C4
:10A65000BDE8F0811648FF2100F030FC30B9FF2141
:10A66000134800F02BFC0120BDE8F081FF211048C9
:10A6700000F024FCFF2104460D4800F01FFCA6B1A9
:10A6800040EA042080B230800028E8D0DFF8208043
:10A690000024FF21404600F011FCA5B2013478559A
:10A6A0003288A3B29A42F4D8D9E73088ECE700BFE9
:10A6B000306400205C5D030024680020605D0300BE
:10A6C000AC5D0300B05D0300B45D0300B85D030042
:10A6D0002DE9F041DFF8E08005460F46164640F2CE
:10A6E000E93403E0013C3BD0E02805D0FF2140469F
:10A6F00000F0E4FBEF28F5D12F48FF2100F0DEFB4E
:10A7000045F080058542044630D02C492C4802F0A3
:10A7100043FB2C492A4802F03FFB2B49284802F012
:10A720003BFB0A224FF4CF71254802F0F1FC274988
:10A73000234802F031FB2649214802F02DFB29462F
:10A7400010221F4802F0E4FC22491D4802F024FBBD
:10A75000214610221A4802F0ABFC0020BDE8F0812F
:10A76000E02818BF2046C7D0BDE8F0811248FF217D
:10A7700000F0A4FB30B9FF210F4800F09FFB01203F
:10A78000BDE8F0810C48FF2100F098FB8EB13070DD
:10A790000028F0D0084D7C1EFF21284600F08EFBDB
:10A7A000234604F8010F02333278DB1B9A42F3DCB4
:10A7B000E1E73078ECE700BF306400205C5D030027
:10A7C00024680020605D0300AC5D0300B05D030001
:10A7D000B45D0300B85D03002DE9F04F3B4D83B03D
:10A7E00007468846164640F2E93403E0013C39D07A
:10A7F000E02805D0FF21284600F060FBEF28F5D1C6
:10A800003248FF2100F05AFB47F080078742044698
:10A810002ED02F492F4802F0BFFA2F492D4802F0C1
:10A82000BBFA2E492B4802F0B7FA0A2240F2BB11BC
:10A83000284802F06DFC2A49264802F0ADFA294961
:10A84000244802F0A9FA39461022224802F060FC9E
:10A850002549204802F0A0FA214610221D4802F0A6
:10A8600027FC01E0E028CBD0002003B0BDE8F08F4A
:10A870001648FF2100F022FB01900028F4D00FFAC7
:10A8800080FA124F0AEB8A0A0025FF21384600F0B1
:10A8900015FB06EB0509705560B10024FF21384611
:10A8A000D9F801B000F00AFB0BF80400735D013425
:10A8B000A342F3DC0535AA45E7D1019B9845D3D1E6
:10A8C0000248FF2100F0FAFA0120CEE730640020B0
:10A8D0005C5D030024680020605D0300AC5D030044
:10A8E000B05D0300B45D0300B85D0300F8B5044635
:10A8F0000D460B48174600F0E1FA45B1084E2544D5
:10A9000014F8011B304600F0D9FAAC42F8D1012FFF
:10A9100000D0F8BDBDE8F8400148EE2100F0CEBA05
:10A9200030640020F8B50D460446090A0E48174663
:10A9300000F0C4FA0C48E9B200F0C0FA5DB1013D84
:10A94000094E14FA85F5013C14F8011F304600F059
:10A95000B5FAAC42F8D1012F00D0F8BDBDE8F840FF
:10A960000148EE2100F0AABA3064002038B5044650
:10A970000D460A48022100F0A1FA210A074800F01A
:10A980009DFA0648E1B200F099FA012D00D038BDD9
:10A99000BDE838400148EE2100F090BA3064002054
:10A9A00038B50C460546E021094800F087FA05F065
:10A9B0007F01074800F082FA0548214600F07EFA40
:10A9C00004B138BDBDE838400148EE2100F076BA48
:10A9D0003064002008B5162002F0F6F8003818BFE1
:10A9E000012008BD10B5194B86B01C788DF8070002
:10A9F0000023ADF810300393CDF81220CDF80D10E0
:10AA000004B3FFF729FDFFF7E5FC01213A20FFF72A
:10AA1000C7FF012211460DF10700FFF767FFFFF79F
:10AA200015FDFFF713FDFFF701FDFFF715FDFFF71C
:10AA3000D1FC03AA02213A20FFF7CEFEFFF7F6FC75
:10AA400006B010BDFFF77CFCDBE700BF1064002000
:10AA5000F0B5234C94F800C083B007460D46164667
:10AA60001C46BCF1000F37D0FFF7F6FCFFF7B2FC35
:10AA700002211120FFF794FF2946384600220635AF
:10AA8000FFF734FF0122214630462C44FFF72EFF0A
:10AA9000A20704D00134FFF7D9FCA307FAD1FFF7CE
:10AAA000C5FC0024FFF7D8FCFFF794FC0DF1070369
:10AAB0000DF10602012111208DF806408DF80740A6
:10AAC000FFF7D4FC10B9FF238DF80630FFF7AEFC7A
:10AAD0009DF9060003B0F0BDFFF732FCC4E700BFEC
:10AAE0001064002030B5144B1B7883B00BB3FFF714
:10AAF000B3FCFFF76FFC00212020FFF751FFFF257B
:10AB0000FFF794FC0024FFF7A7FCFFF763FC0DF1AF
:10AB100007030DF10602012120208DF806508DF863
:10AB20000740FFF7A3FCFFF781FC9DF8060003B088
:10AB300030BDFFF705FCDAE71064002030B51F4B8D
:10AB40001F4D1A781F4987B00023CDE90233CDF895
:10AB50000F301D4BCDF809500446CDF80E10CDF83E
:10AB600013303AB3FFF778FCFFF734FC01212120C2
:10AB7000FFF716FF0122FF2311460DF107008DF8A4
:10AB80000730FFF7B3FEFFF761FCFFF75FFCFFF74D
:10AB90004DFCFFF761FCFFF71DFC02AA03212120F9
:10ABA000FFF71AFEFFF742FC0549204602F088F83D
:10ABB00007B030BDFFF7C4FBD4E700BF106400202E
:10ABC00024640020206400201C64002010B5224B67
:10ABD0001B7882B00446002B3BD0FFF73DFCFFF70B
:10ABE000F9FB01213420FFF7DBFE204608F0BFFA15
:10ABF0000122C1B22046FFF779FE204608F0B7FADD
:10AC0000441DA20704D00134FFF720FCA307FAD1AA
:10AC1000FFF70CFC0024FFF71FFCFFF7DBFB0DF137
:10AC200007030DF10602012134208DF806408DF84E
:10AC30000740FFF71BFCC4B2FFF7F8FB34B19DF8E7
:10AC40000640A4F10104B4FA84F46409204602B079
:10AC500010BDFFF775FBC0E71064002030B587B06A
:10AC6000FF2300931A461946054604A802F00CF883
:10AC7000194B1B78F3B1FFF7EFFBFFF7ABFB00219C
:10AC80003520FFF78DFE0024FFF7D0FBFFF7E4FB34
:10AC9000FFF7A0FB03AA0DF10B03012135208DF86E
:10ACA0000B40FFF7E3FB044638B9FFF7BFFB204634
:10ACB00007B030BDFFF744FBDDE703A9284601F0EC
:10ACC000FFFF05986C68241A18BF0124FFF7AEFB3C
:10ACD000204607B030BD00BF1064002010B50C4600
:10ACE000FFF774FF00B910BD2046BDE81040FFF724
:10ACF000B5BF00BF00B5124B1B7883B0EBB1FFF7B7
:10AD0000ABFBFFF767FB00213720FFF749FEFFF79A
:10AD10008DFBFFF7A1FBFFF75DFB0021094A8DF8D2
:10AD200007100DF1070301213720FFF79FFBFFF705
:10AD30007DFB044803B05DF804FBFFF701FBDEE791
:10AD4000106400202864002000B583B00023009325
:10AD50001A461946024801F097FF03B05DF804FB5C
:10AD600014640020437C03B1704730B54FF4807207
:10AD700085B002820321FF22019304468DF803204F
:10AD80008DF806208DF80510827B417B8DF8002020
:10AD90004FF080451A4602958DF80110057BC3736C
:10ADA000694603938DF8025001F0C2FAA37B1F2B72
:10ADB00086BF03F01F030C4A4FF0A04203F5E07377
:10ADC00040F2013142F82310637B1F2B86BF03F052
:10ADD0001F03054A4FF0A04203F5E07340F2033130
:10ADE00042F8231005B030BD0003005010B483B00A
:10ADF00002AB03E906009DF805109DF804200368E6
:10AE0000013918BF01210024022AC3F800450C466D
:10AE10000174C27332D0032A2DD0012A28D0224ACD
:10AE20000099B2FBF1F2B2F5007FC3F8544504D2A9
:10AE3000FF2A0DD94FF0806101E04FF00071072229
:10AE4000C3F82415C3F8002503B05DF8044B704720
:10AE50007F2A16D83F2A17D81F2A18D80F2A19D8A0
:10AE6000072A02D811498B4217D04FF00041E6E77C
:10AE700041F00204D3E741F00604D0E741F00404B6
:10AE8000CDE74FF00061DAE74FF08051D7E74FF0A0
:10AE90000051D4E74FF08041D1E7032A8CBF4FF037
:10AEA00020614FF0A051CAE70090D00300F00240AB
:10AEB00003680022C3F80025704700BF30B587B093
:10AEC00001230D460DF10704002202A9CDE9033448
:10AED0008DF807500294059301F06CFB9DF8070074
:10AEE00007B030BD094A0A4B30B4D2E91910146ECC
:10AEF0001C7300220124074D1C7198735973DA7377
:10AF00001A821D609A6030BC704700BFBC5D0300B0
:10AF10003064002000F0024008B50121032001F058
:10AF2000F5FD032001F072FE0420012101F0EEFD89
:10AF3000BDE80840042001F069BE00BF0A490B4A81
:10AF40000B4B9B1A03DD043BC858D050FBDC09486F
:10AF500009494FF0AD32026004300439FBD101F0F1
:10AF600077FCFBF775F900007C62030000600020AD
:10AF70008462002000F8032000080000FEE7FEE7DE
:10AF8000FEE7FEE7FEE7FEE7FEE7FEE7FEE7FEE799
:10AF900008B500F00BFA4FF47A73A0FB0323900A74
:10AFA00040EA835008BD00BF38B50B4C8002A4FBBB
:10AFB000003400F0FBF90546002003F069F900F0C9
:10AFC000F5F9A409431B9C4200D838BD2C44201A33
:10AFD000BDE8384000F022BBD34D62102DE9F041AE
:10AFE000044601F03DF8344A344D136801331360D0
:10AFF0002B68002B30D0324E336833B3E36A3148CC
:10B00000314907680A689F4238BF03602F48013200
:10B0100003EB83030A6000EB8300E263211D05F06C
:10B020008DF801F027F833686BB12A68E36AD26AB9
:10B030009A4208D2264B4FF080525A6040BFBFF36D
:10B040004F8FBFF36F8FBDE8F0812A68E36AD26A41
:10B050009A4298BF2C60D2E72C601368012B02D073
:10B06000E36A174ECBE71948DFF89080194F144E6A
:10B0700005F054F8184805F051F8184805F04EF856
:10B08000174805F04BF8174805F048F8404605F01A
:10B0900045F8384605F042F8134805F03FF81348E4
:10B0A00005F03CF8124805F039F8124B124AC2F884
:10B0B00000801F60E36AA2E7B464002044640020BB
:10B0C00014650020C8640020C4640020506400207F
:10B0D00000ED00E0E064002064640020786400205B
:10B0E0008C640020A0640020006500202C650020F6
:10B0F000186500204C64002048640020CC640020C7
:10B100002DE9F843DDE909C4002C66D0BCF1000F3D
:10B1100060D00D46960098460223324684F851309E
:10B12000A5210746C4F830C0604607F045FA2A78E2
:10B1300084F83420236B2978321F1A4422F0070642
:10B1400001B36B7884F835306B78DBB1AB7884F879
:10B150003630AB78B3B1EB7884F83730EB788BB11D
:10B160002B7984F838302B7963B16B7984F83930D6
:10B170006B793BB1AB7984F83A30AB7913B1EB79A9
:10B1800084F83B30089D042D28BF04254FF00009AA
:10B19000E5626564201D84F83B90C4F8489004F093
:10B1A000C9FFC5F1050504F1180004F0C3FFC4F898
:10B1B0004C9042463946A561246184F850906462FF
:10B1C000304600F011FF20602046FFF707FF2046C1
:10B1D000BDE8F8836046BDE8F8832046BDE8F88303
:10B1E0002DE9F0479600804630460D46994604F01A
:10B1F000E1FF002862D00746542004F0DBFF04463C
:10B2000000285FD000230763324684F85130384667
:10B21000A52107F0D1F92B7884F834302B78D4F8B5
:10B2200030A003B36B7884F835306B78DBB1AB7842
:10B2300084F83630AB78B3B1EB7884F83730EB78FC
:10B240008BB12B7984F838302B7963B16B7984F822
:10B2500039306B793BB1AB7984F83A30AB7913B1C3
:10B26000EB7984F83B30089D042D28BF0425002786
:10B27000E5626564201D84F83B70A764043E04F019
:10B2800059FFC5F1050504F11800564404F052FFBA
:10B29000E764A56126F0070084F8507024616462B9
:10B2A0004A46414600F0A0FE099B206003B11C60A5
:10B2B0002046FFF793FE0120BDE8F0874FF0FF30F6
:10B2C000BDE8F087384604F087FF4FF0FF30F3E722
:10B2D00070B584B0002503AA02A901A8CDE90155E3
:10B2E00002F046FF019C002C46D00298002843D073
:10B2F000039E20630223B6003246A52184F8513014
:10B3000007F05AF9206B1F4B6363043E0644C4E9FF
:10B310001155201D84F8385084F83B50E56204F044
:10B3200009FF04F1180004F005FF26F007060523C5
:10B330001549A3612A46E56430462461646284F8B5
:10B34000505000F051FE20602046FFF747FE0F4BA3
:10B350001C6000F0EFFD012811D1402383F3118818
:10B360000B490C4A0C4B4FF0FF340C6010601D6011
:10B3700000F050FE04B070BD044B00221A6004B00F
:10B3800070BD00BF49444C45A1B60200F4640020E2
:10B39000F86400201465002040650020024A13680C
:10B3A00001331360704700BFC0640020014B186870
:10B3B000704700BF40650020024A136818441060BF
:10B3C000704700BF406500202DE9F04F404B1B68DF
:10B3D00083B0002B46D13F4B1E6801361E60002E05
:10B3E0004ED0DFF808B1DBF80030B3425FD83A4FF7
:10B3F0003B681D68002D65D0DFF8F480DFF8F4A00D
:10B40000DFF8F490002522E0019104F0BFFEA36A6A
:10B41000019904F1180013B104F0B8FE0199E36A30
:10B42000D8F8002003EB830093420AEB800088BF2A
:10B43000C8F8003004F082FED9F800203B68E16AC9
:10B44000D26A1B68914228BF0125002B3AD03B6885
:10B45000DB68DC686368211D9E420846D4D2CBF8C5
:10B46000003004E01D4A13680133136000251C4BB3
:10B470001B68002B0CBF2846012003B0BDE8F08FED
:10B48000154B184A1868184914681C6010600A683F
:10B4900001320A601A6812685AB9DFF850B04FF0EA
:10B4A000FF33CBF80030DBF80030B3429FD90025E2
:10B4B000DDE71B68DFF834B0DB68DB685B68CBF87E
:10B4C000003090E74FF0FF33CBF80030CFE700BFFC
:10B4D000C06400204065002048640020BC64002057
:10B4E000446500204C640020FC640020F8640020C7
:10B4F000C864002050640020446400202DE9F04F0F
:10B5000083B000F0ADFD3A4B1A68013A1A601B682F
:10B51000002B55D1374B1B68002B51D0364D2B6873
:10B52000002B62D0354EDFF8EC80354FDFF8E89025
:10B530004FF0010AEB68DC6804F1040B04F1180019
:10B5400004F024FE584604F021FEE36A326803EB5F
:10B5500083009342594608EB800088BF336004F0B3
:10B56000EDFD3B68E26ADB6A9A4231D3C9F800A07C
:10B570002B68002BDED1234B1A681268002A2FD0CB
:10B580001A68214BD268D26852681A601F4E34681C
:10B5900044B10125FFF718FF08B1C9F80050013C7C
:10B5A000F8D13460D9F8003053B1194B4FF08052C4
:10B5B0005A6040BFBFF34F8FBFF36F8F012000E091
:10B5C0000020019000F056FD019803B0BDE8F08F17
:10B5D0002B68002BAED10B4B1A681268002ACFD112
:10B5E000094B4FF0FF321A60D0E7DFF82C90CDE71F
:10B5F000C0640020B464002000650020C8640020FE
:10B600004464002048640020F8640020BC640020EA
:10B6100000ED00E0506400204465002070B548B99A
:10B62000184B4FF080525A6040BFBFF34F8FBFF3AB
:10B630006F8F70BD144A15491368154D013313609F
:10B640000E6804462868043004F0A0FD2B68A41995
:10B650005C600FD20F4B18682968043104F07EFD3E
:10B660000D4B1A68944238BF1C60FFF747FF002853
:10B67000D6D070BD094B18682968043104F06EFDFE
:10B68000F3E700BF00ED00E0C0640020406500204B
:10B690004464002048640020F86400204C640020CA
:10B6A0002DE9F84F3A4CDFF804913A4D3A4EDFF865
:10B6B00000813A4FDFF8FCB02368EBB100F0D0FC1A
:10B6C000D9F80C30D3F80CA00AF1040004F05EFDA8
:10B6D0002B68013B2B602368013B236000F0CAFC10
:10B6E0009AF85130002B34D0012BE5D1504604F0AC
:10B6F00073FD2368002BE1D13368012B08D94FF08B
:10B700008053CBF8043040BFBFF34F8FBFF36F8F30
:10B7100000F00CFED8F800301BBB3B68DB6A002B46
:10B72000CAD13368012BC7D81D4B1E4A1B6812684B
:10B730009B1A012BC0D91C4A136801331360D8F837
:10B740000030A3B13B68DB6A03B93368FFF7D6FE6C
:10B75000B2E7DAF8300004F03FFD504604F03CFD5B
:10B76000AAE73B68DB6A002BA6D13368A4E73B68F5
:10B77000DB6A002BEAD13368012BE7D8084B186845
:10B78000084B1B68C01A0128E0D900F0DFFCDDE798
:10B79000B8640020B4640020506400204464002099
:10B7A000F864002040650020C06400202C65002063
:10B7B000C864002000ED00E0294B1B681BB1294B39
:10B7C00001221A607047274A70B5274C136022681F
:10B7D000236812681B6B9A423CD9244D244B2A687B
:10B7E00002EB820080009100185808BB501E00EB4D
:10B7F0008006B60081009E5956BB901E00EB800665
:10B80000B60081009E591EBBD01E00EB8006B6001C
:10B8100081009E59E6B9101F00EB8006B60081003A
:10B820009E59AEB9053A02EB82008000910018588B
:10B83000114403EB810003464168496841600833C5
:10B84000994204BF49684160CB6823602A6070BD9B
:10B850000246EDE720682168343102F085FCBCE740
:10B86000C06400204465002044640020C8640020B7
:10B870005064002070B5174D2B680C4603F1180179
:10B8800004F06CFC144B1E682868043004F07EFC45
:10B89000631C17D02B68A4195C6007D30F4B186882
:10B8A0002968BDE87040043104F058BC0C4B18689E
:10B8B0002968043104F052FC0A4B1A68944238BFDC
:10B8C0001C6070BD29680848BDE87040043104F070
:10B8D00035BC00BF44640020406500204C6400205B
:10B8E00048640020F86400201865002070B5194DE8
:10B8F0002B6816460C4603F1180104F01FFC164B8A
:10B900005EB11B682868043004F040FC29681348C5
:10B91000BDE87040043104F011BC1E682868043092
:10B9200004F034FC2B68A4195C6007D30C4B186836
:10B930002968BDE87040043104F010BC094B186858
:10B940002968043104F00AFC074B1A68944238BF96
:10B950001C6070BD44640020406500201865002014
:10B960004C64002048640020F864002030B5C368AF
:10B97000DC6804F1180583B0284604F007FC1C4B72
:10B980001B683BBB211D0846019104F0FFFB194ACF
:10B99000E36A106801998342174888BF136003EB7C
:10B9A000830300EB830004F0C9FB144BE26A1B68BD
:10B9B000DB6A9A4282BF124B01201860114B1A6851
:10B9C000126898BF002052B90F4B4FF0FF321A6037
:10B9D00003B030BD0D48294604F0B0FBE5E71A6816
:10B9E000094BD268D26852681A6003B030BD00BFFC
:10B9F000C0640020C864002050640020446400201B
:10BA00004465002048640020F864002000650020A0
:10BA1000034A044B12681B68C0E90023704700BF4B
:10BA2000FC64002040650020F0B50D4683B004465C
:10BA300000F016FB2B68144A591C10681DD0DFF863
:10BA40004CC0D4E90061DCF80070BE4208D08142ED
:10BA500006D80120019000F00DFB019803B0F0BD65
:10BA6000471ABB420BD91B1A0B44DCF800101268B2
:10BA70002B600020C4E90012ECE70020EAE7002375
:10BA80002B600120E6E700BF40650020FC64002039
:10BA9000014B01221A60704744650020094B186869
:10BAA00018B9094B1B6813B1704700207047074A4B
:10BAB000074B10681B68013B984214BF012002200D
:10BAC000704700BF00650020446500201865002015
:10BAD000B4640020054B1B6833B1054B1B68002B79
